:100000000C9457000C9474000C9474000C940D0123
:100010000C9474000C9474000C9474000C94740090
:100020000C9474000C9474000C9474000C94740080
:100030000C9474000C9474000C9474000C94740070
:100040000C94C3000C9474000C9474000C94740011
:100050000C9474000C9474000C9474000C94740050
:100060000C9474000C94740000000000250028001B
:100070002B00040404040404040402020202020229
:10008000030303030303010204081020408001025C
:1000900004081020010204081020000000080002DB
:1000A000010000030407000000000000000011240C
:1000B0001FBECFEFD8E0DEBFCDBF11E0A0E0B1E0C2
:1000C000EEE6F3E002C005900D92A430B107D9F737
:1000D00021E0A4E0B1E001C01D92A031B207E1F738
:1000E0000E944C010C94B5010C94000090E0FC01BE
:1000F000E656FF4F2491FC01EA57FF4F3491FC0173
:10010000EE58FF4FE491EE2309F43CC0222339F16D
:10011000233091F038F42130A9F0223001F584B574
:100120008F7D12C0273091F02830A1F02430B9F42F
:10013000809180008F7D03C0809180008F778093B5
:1001400080000DC084B58F7784BD09C08091B00058
:100150008F7703C08091B0008F7D8093B000F0E076
:10016000EE0FFF1FE859FF4FA591B4919FB7F89488
:10017000611104C08C913095382302C0EC913E2B64
:100180003C939FBF08951F920F920FB60F921124B8
:100190002F933F938F939F93AF93BF9380910C01C5
:1001A00090910D01A0910E01B0910F0130910B01C2
:1001B00023E0230F2D3720F40196A11DB11D05C0AA
:1001C00026E8230F0296A11DB11D20930B018093F9
:1001D0000C0190930D01A0930E01B0930F0180913B
:1001E000070190910801A0910901B0910A010196BF
:1001F000A11DB11D8093070190930801A0930901EF
:10020000B0930A01BF91AF919F918F913F912F9130
:100210000F900FBE0F901F9018951F920F920FB660
:100220000F9211248F939F9383B181708093020169
:1002300083B1869581708093010183B182FB882709
:1002400080F98093000180910201811106C0909194
:10025000060181E0892780930601809101018111C7
:1002600006C09091050181E0892780930501809166
:100270000001811106C09091040181E089278093DB
:1002800004018BE79AE10197F1F79F918F910F900D
:100290000FBE0F901F901895789484B5826084BD2E
:1002A00084B5816084BD85B5826085BD85B581607A
:1002B00085BD80916E00816080936E0010928100F8
:1002C00080918100826080938100809181008160B3
:1002D0008093810080918000816080938000809174
:1002E000B10084608093B1008091B0008160809300
:1002F000B00080917A00846080937A0080917A00C7
:10030000826080937A0080917A00816080937A0085
:1003100080917A00806880937A001092C10084B145
:10032000886384B985B1876085B980916B008760E7
:1003300080936B0080916800816080936800C0E0CA
:10034000D0E0609106018BE00E947600609105018B
:100350008CE00E947600609104018DE00E9476009E
:0E036000209779F30E940000ECCFF894FFCFB5
:04036E000101010088
:107E0000112484B714BE81FFF0D085E080938100F7
:107E100082E08093C00088E18093C10086E0809377
:107E2000C20080E18093C4008EE0C9D0259A86E02C
:107E300020E33CEF91E0309385002093840096BBD3
:107E4000B09BFECF1D9AA8958150A9F7CC24DD24C4
:107E500088248394B5E0AB2EA1E19A2EF3E0BF2EE7
:107E6000A2D0813461F49FD0082FAFD0023811F036
:107E7000013811F484E001C083E08DD089C08234E0
:107E800011F484E103C0853419F485E0A6D080C0E4
:107E9000853579F488D0E82EFF2485D0082F10E0AE
:107EA000102F00270E291F29000F111F8ED06801E7
:107EB0006FC0863521F484E090D080E0DECF843638
:107EC00009F040C070D06FD0082F6DD080E0C81688
:107ED00080E7D80618F4F601B7BEE895C0E0D1E017
:107EE00062D089930C17E1F7F0E0CF16F0E7DF06D8
:107EF00018F0F601B7BEE89568D007B600FCFDCFD4
:107F0000A601A0E0B1E02C9130E011968C91119780
:107F100090E0982F8827822B932B1296FA010C0160
:107F200087BEE89511244E5F5F4FF1E0A038BF0790
:107F300051F7F601A7BEE89507B600FCFDCF97BE46
:107F4000E89526C08437B1F42ED02DD0F82E2BD052
:107F50003CD0F601EF2C8F010F5F1F4F84911BD097
:107F6000EA94F801C1F70894C11CD11CFA94CF0C13
:107F7000D11C0EC0853739F428D08EE10CD085E9AC
:107F80000AD08FE07ACF813511F488E018D01DD067
:107F900080E101D065CF982F8091C00085FFFCCF94
:107FA0009093C60008958091C00087FFFCCF809118
:107FB000C00084FD01C0A8958091C6000895E0E648
:107FC000F0E098E1908380830895EDDF803219F02E
:107FD00088E0F5DFFFCF84E1DECF1F93182FE3DFCA
:107FE0001150E9F7F2DF1F91089580E0E8DFEE27F6
:047FF000FF270994CA
:027FFE00040479
:0400000300007E007B
:00000001FF
