:100000000C945C000C946E000C946E000C946E00CA
:100010000C946E000C946E000C946E000C946E00A8
:100020000C946E000C946E000C946E000C946E0098
:100030000C946E000C946E000C946E000C946E0088
:100040000C941E010C946E000C946E000C946E00C7
:100050000C946E000C946E000C946E000C946E0068
:100060000C946E000C946E00000000002400270029
:100070002A0000000000250028002B0004040404CE
:100080000404040402020202020203030303030342
:10009000010204081020408001020408102001021F
:1000A00004081020000000080002010000030407FB
:1000B000000000000000000011241FBECFEFD8E0B8
:1000C000DEBFCDBF21E0A0E0B1E001C01D92A930AC
:1000D000B207E1F70E9468010C944E020C940000F4
:1000E00090E0FC01EC55FF4F2491FC01E057FF4FDD
:1000F0003491FC01E458FF4FE491EE2309F43CC035
:10010000222339F1233091F038F42130A9F0223044
:1001100001F584B58F7D12C0273091F02830A1F011
:100120002430B9F4809180008F7D03C080918000DD
:100130008F77809380000DC084B58F7784BD09C010
:100140008091B0008F7703C08091B0008F7D809345
:10015000B000F0E0EE0FFF1FEE58FF4FA591B491F5
:100160009FB7F894611104C08C913095382302C078
:10017000EC913E2B3C939FBF0895CF93DF9390E08B
:10018000FC01E057FF4F2491FC01E458FF4F84919C
:10019000882361F190E0880F991FFC01E859FF4F17
:1001A000C591D491FC01EE58FF4FA591B491611116
:1001B00009C09FB7F8948881209582238883EC91A9
:1001C0002E230BC0623061F49FB7F8948881322FE0
:1001D000309583238883EC912E2B2C939FBF06C0F0
:1001E0008FB7F894E8812E2B28838FBFDF91CF91B2
:1001F00008953FB7F8948091050190910601A09170
:100200000701B091080126B5A89B05C02F3F19F042
:100210000196A11DB11D3FBFBA2FA92F982F882786
:10022000820F911DA11DB11DBC01CD0142E0660FE1
:10023000771F881F991F4A95D1F708951F920F9233
:100240000FB60F9211242F933F938F939F93AF93E9
:10025000BF938091010190910201A0910301B0919F
:1002600004013091000123E0230F2D3720F4019683
:10027000A11DB11D05C026E8230F0296A11DB11DC9
:10028000209300018093010190930201A093030148
:10029000B09304018091050190910601A09107019E
:1002A000B09108010196A11DB11D809305019093A5
:1002B0000601A0930701B0930801BF91AF919F91F0
:1002C0008F913F912F910F900FBE0F901F90189517
:1002D000789484B5826084BD84B5816084BD85B521
:1002E000826085BD85B5816085BD80916E0081602D
:1002F00080936E00109281008091810082608093D3
:1003000081008091810081608093810080918000D4
:100310008160809380008091B10084608093B100FF
:100320008091B00081608093B00080917A008460F9
:1003300080937A0080917A00826080937A00809125
:100340007A00816080937A0080917A00806880933F
:100350007A001092C10000E010E0C0E0D0E0C330AD
:10036000D10549F13CF4C130D105A9F0C230D10525
:10037000E1F007C0C430D10581F1C530D10509F4E1
:1003800042C061E08BE00E94BD0061E08CE00E9411
:10039000BD0060E019C061E08BE00E94BD0061E03B
:1003A0008CE00E94BD0060E037C060E08BE00E94FE
:1003B000BD0061E017C060E08BE00E94BD0061E01D
:1003C0008CE00E94BD0061E08DE00E94BD0060E015
:1003D0008BE00E94700061E027C061E08BE00E942A
:1003E000BD0060E08CE00E94BD0061E08DE00E94F5
:1003F000BD0060E08BE00E94700060E08CE00E9435
:10040000700061E015C061E08BE00E94BD0060E01B
:100410008CE00E94BD0061E08DE00E94BD0061E0C3
:100420008BE00E94700060E08CE00E94700060E051
:100430008DE00E9470000E94F9004B015C0188EE83
:10044000C82E83E0D82EE12CF12C0E94F900DC01AB
:10045000CB0188199909AA09BB09883E9340A105D7
:10046000B10598F321E0C21AD108E108F10888EE3D
:10047000880E83E0981EA11CB11CC114D104E104B4
:10048000F10419F72196C630D10509F068CF01159E
:10049000110509F462CF0E9400005FCFF894FFCFEE
:00000001FF
