:100000000C9457000C9467010C9440010C947400FC
:100010000C9474000C9474000C9474000C94740090
:100020000C9474000C9474000C9474000C94740080
:100030000C9474000C9474000C9474000C94740070
:100040000C94F6000C9474000C9474000C947400DE
:100050000C9474000C9474000C9474000C94740050
:100060000C9474000C94740000000000250028001B
:100070002B00040404040404040402020202020229
:10008000030303030303010204081020408001025C
:1000900004081020010204081020000000080002DB
:1000A000010000030407000000000000000011240C
:1000B0001FBECFEFD8E0DEBFCDBF11E0A0E0B1E0C2
:1000C000E0E0F4E002C005900D92A830B107D9F746
:1000D00021E0A8E0B1E001C01D92A431B207E1F730
:1000E0000E948E010C94FE010C94000090E0FC0133
:1000F000E656FF4F2491FC01EA57FF4F3491FC0173
:10010000EE58FF4FE491EE2309F43CC0222339F16D
:10011000233091F038F42130A9F0223001F584B574
:100120008F7D12C0273091F02830A1F02430B9F42F
:10013000809180008F7D03C0809180008F778093B5
:1001400080000DC084B58F7784BD09C08091B00058
:100150008F7703C08091B0008F7D8093B000F0E076
:10016000EE0FFF1FE859FF4FA591B4919FB7F89488
:10017000611104C08C913095382302C0EC913E2B64
:100180003C939FBF0895089583B1817080930201CD
:1001900083B1869581708093010183B182FB8827AA
:1001A00080F98093000180910201811106C0909135
:1001B0000A0181E0892780930A0180910101811160
:1001C00006C09091090181E08927809309018091FF
:1001D0000001811106C09091080181E08927809378
:1001E00008018BE39CE90197F1F708951F920F92A4
:1001F0000FB60F9211242F933F938F939F93AF933A
:10020000BF938091100190911101A0911201B091C2
:10021000130130910F0123E0230F2D3720F40196B5
:10022000A11DB11D05C026E8230F0296A11DB11D19
:1002300020930F018093100190931101A09312015C
:10024000B093130180910B0190910C01A0910D01CD
:10025000B0910E010196A11DB11D80930B019093E9
:100260000C01A0930D01B0930E01BF91AF919F912E
:100270008F913F912F910F900FBE0F901F90189567
:100280001F920F920FB60F9211242F933F934F930B
:100290005F936F937F938F939F93AF93BF93EF93EE
:1002A000FF93E0910501F09106010995FF91EF910F
:1002B000BF91AF919F918F917F916F915F914F917E
:1002C0003F912F910F900FBE0F901F9018951F9286
:1002D0000F920FB60F9211242F933F934F935F937A
:1002E0006F937F938F939F93AF93BF93EF93FF93FE
:1002F000E0910301F09104010995FF91EF91BF9105
:10030000AF919F918F917F916F915F914F913F91AD
:100310002F910F900FBE0F901F901895789484B571
:10032000826084BD84B5816084BD85B5826085BDF1
:1003300085B5816085BD80916E00816080936E007F
:100340001092810080918100826080938100809171
:100350008100816080938100809180008160809322
:1003600080008091B10084608093B1008091B000E2
:1003700081608093B00080917A00846080937A00DD
:1003800080917A00826080937A0080917A00816007
:1003900080937A0080917A00806880937A0010922E
:1003A000C10084B1886384B985B1876085B98AB199
:1003B0008AB984E08BB984EC90E090930401809337
:1003C0000301809169008C7F826080936900E89AC4
:1003D000C0E0D0E060910A018BE00E94760060915D
:1003E00009018CE00E947600609108018DE00E9476
:1003F0007600209779F30E940000ECCFF894FFCFAD
:08040000010101C300C300006B
:00000001FF
