:100000000C9461000C947E000C947E000C947E0095
:100010000C947E000C947E000C947E000C947E0068
:100020000C947E000C947E000C947E000C947E0058
:100030000C947E000C947E000C947E000C947E0048
:100040000C94F2000C947E000C947E000C947E00C4
:100050000C947E000C947E000C947E000C947E0028
:100060000C947E000C947E00000000002400270009
:100070002A0000000000250028002B0000000000DE
:1000800023002600290004040404040404040202DA
:100090000202020203030303030301020408102007
:1000A0004080010204081020010204081020000012
:1000B0000008000201000003040700000000000027
:1000C000000011241FBECFEFD8E0DEBFCDBF11E08E
:1000D000A0E0B1E0E0EAF4E002C005900D92A230A9
:1000E000B107D9F721E0A2E0B1E001C01D92A03133
:1000F000B207E1F70E943C010C944E020C94000000
:10010000833081F028F4813099F08230A1F0089595
:100110008730A9F08830B9F08430D1F48091800024
:100120008F7D03C0809180008F7780938000089539
:1001300084B58F7702C084B58F7D84BD089580918A
:10014000B0008F7703C08091B0008F7D8093B000A6
:100150000895CF93DF93E7EBF0E08491E3EAF0E0DA
:10016000D491EFE8F0E0C491CC2391F081110E948A
:100170008000EC2FF0E0EE0FFF1FE458FF4FA59139
:10018000B491EC91ED2381E090E021F480E002C095
:1001900080E090E0DF91CF9108953FB7F89480918F
:1001A0000C0190910D01A0910E01B0910F0126B5A7
:1001B000A89B05C02F3F19F00196A11DB11D3FBF9F
:1001C000BA2FA92F982F8827820F911DA11DB11D2D
:1001D000BC01CD0142E0660F771F881F991F4A9529
:1001E000D1F708951F920F920FB60F9211242F93FB
:1001F0003F938F939F93AF93BF938091080190910A
:100200000901A0910A01B0910B013091070123E08F
:10021000230F2D3720F40196A11DB11D05C026E83E
:10022000230F0296A11DB11D2093070180930801A1
:1002300090930901A0930A01B0930B0180910C01E6
:1002400090910D01A0910E01B0910F010196A11D99
:10025000B11D80930C0190930D01A0930E01B093FA
:100260000F01BF91AF919F918F913F912F910F906F
:100270000FBE0F901F901895789484B5826084BD4E
:1002800084B5816084BD85B5826085BD85B581609A
:1002900085BD80916E00816080936E001092810018
:1002A00080918100826080938100809181008160D3
:1002B0008093810080918000816080938000809194
:1002C000B10084608093B1008091B0008160809320
:1002D000B00080917A00846080937A0080917A00E7
:1002E000826080937A0080917A00816080937A00A6
:1002F00080917A00806880937A001092C100E3EACE
:10030000F0E02491EFE8F0E084918823C1F090E0E0
:10031000880F991FFC01E859FF4FC591D491FC014A
:10032000EE58FF4FA591B4919FB7F8948881322F72
:10033000309583238883EC91E22BEC939FBFC6EA30
:10034000D0E0FE01249102E910E0F80184918823B5
:1003500099F090E0880F991FFC01E859FF4FA59193
:10036000B491FC01EE58FF4F859194919FB7F8949A
:100370008C91822B8C939FBF2AEB822E20E0922EB1
:1003800030E0A32E30E0B32E332433940E94A90032
:1003900022242394892B09F4212C209200010E940D
:1003A000CD006B017C019AE0492E512C612C712CFF
:1003B0000E94CD00DC01CB018C199D09AE09BF095B
:1003C000883E9340A105B10598F3F1E04F1A51081A
:1003D0006108710828EEC20E23E0D21EE11CF11C58
:1003E000411451046104710419F70E94A900222DDF
:1003F00030E02817390749F00E94A900892B19F429
:100400003092060102C010920601209106018091EF
:10041000040190910501820F911D90930501809335
:10042000040105970CF431C0E0900201F090030143
:1004300081E090E0E114F10411F080E090E090930D
:10044000030180930201F4018491FE01D490F8012C
:10045000C490CC20B1F081110E948000EC2DF0E01E
:10046000EE0FFF1FEE58FF4FA591B4919FB7F89480
:100470008C91EF2819F0D094D82201C0D82ADC92B0
:100480009FBF109205011092040110920601A11461
:10049000B10409F47BCF0E94000078CFF894FFCF1D
:0204A000010059
:00000001FF
