:100000000C943D000C944F000C944F000C944F0046
:100010000C944F000C944F000C944F000C944F0024
:100020000C944F000C944F000C944F000C944F0014
:100030000C944F000C944F000C944F000C944F0004
:100040000C94CA000C944F000C944F000C944F0079
:100050000C944F000C944F000C944F000C944F00E4
:100060000C944F000C944F00870089008B008D008A
:100070008F00910093009500970011241FBECFEFD1
:10008000D8E0DEBFCDBF21E0A0E0B1E001C01D920D
:10009000A331B207E1F70E9414010C9401020C9401
:1000A00000003FB7F89480910F0190911001A0914A
:1000B0001101B091120126B5A89B05C02F3F19F080
:1000C0000196A11DB11D3FBFBA2FA92F982F8827D8
:1000D000820F911DA11DB11DBC01CD0142E0660F33
:1000E000771F881F991F4A95D1F708958F929F9285
:1000F000AF92BF92CF92DF92EF92FF920197893039
:100100009105B8F48C5C9F4FFC010C94E70186E0EC
:1001100011C08BE50FC08FE40DC086E60BC08DE6E5
:1001200009C08CE707C087E005C08FE703C087E6FA
:1001300001C08FE38BB90E9451004B015C0185E047
:10014000C82ED12CE12CF12C0E945100DC01CB01F6
:1001500088199909AA09BB09883E9340A105B105F0
:1001600098F3F1E0CF1AD108E108F10828EE820EE9
:1001700023E0921EA11CB11CC114D104E104F104BE
:1001800019F7FF90EF90DF90CF90BF90AF909F90C6
:100190008F9008951F920F920FB60F9211242F93F4
:1001A0003F938F939F93AF93BF9380910B01909157
:1001B0000C01A0910D01B0910E0130910A0123E0D4
:1001C000230F2D3720F40196A11DB11D05C026E88F
:1001D000230F0296A11DB11D20930A0180930B01EC
:1001E00090930C01A0930D01B0930E0180910F012B
:1001F00090911001A0911101B09112010196A11DE1
:10020000B11D80930F0190931001A0931101B09341
:100210001201BF91AF919F918F913F912F910F90BC
:100220000FBE0F901F901895789484B5826084BD9E
:1002300084B5816084BD85B5826085BD85B58160EA
:1002400085BD80916E00816080936E001092810068
:100250008091810082608093810080918100816023
:1002600080938100809180008160809380008091E4
:10027000B10084608093B1008091B0008160809370
:10028000B00080917A00846080937A0080917A0037
:10029000826080937A0080917A00816080937A00F6
:1002A00080917A00806880937A001092C1008AB1B0
:1002B0008FEF8AB984B18F6084B9CAE0D0E004E6D8
:1002C00010E038EEE32E33E0F32E4BE0942E5DE0A9
:1002D000852E67E0762E9EE0692E20E0C22E20E07B
:1002E000D22E2091080130910901C901BE010E945E
:1002F000D3019093070180930601CB01BE010E94B8
:10030000D3019093050180930401C901B8010E94B3
:10031000D301CB01BE010E94D301909303018093CE
:100320000201C901B7010E94D301709301016093DA
:1003300000012031374224F0109209011092080187
:1003400085E0A82EB12C75B8809106019091070127
:100350000E94760095B880910401909105010E9459
:10036000760085B880910201909103010E94760089
:1003700065B880910001909101010E94760081E0B2
:10038000A81AB10801F7809108019091090101961E
:100390009093090180930801C114D10409F4A1CFFD
:1003A0000E94000098CF97FB072E16F4009407D008
:1003B00077FD09D00E94ED0107FC05D03EF4909531
:1003C00081959F4F0895709561957F4F0895EE0F29
:1003D000FF1F0590F491E02D0994AA1BBB1B51E16E
:1003E00007C0AA1FBB1FA617B70710F0A61BB70BA5
:1003F000881F991F5A95A9F780959095BC01CD014A
:060400000895F894FFCFFF
:00000001FF
