:100000000C943B000C9458000C9458000C9458002D
:100010000C9458000C9458000C9458000C94580000
:100020000C9458000C9458000C9458000C945800F0
:100030000C9458000C9458000C9458000C945800E0
:100040000C947F000C9458000C9458000C945800A9
:100050000C9458000C9458000C9458000C945800C0
:100060000C9458000C9458007101730175017701CC
:1000700079017B017D0111241FBECFEFD8E0DEBFE7
:10008000CDBF11E0A0E0B1E0E8E2F3E002C00590EE
:100090000D92A230B107D9F721E0A2E0B1E001C092
:1000A0001D92AE30B207E1F70E94C9000C94920194
:1000B0000C9400003FB7F89480910A0190910B01D5
:1000C000A0910C01B0910D0126B5A89B05C02F3F52
:1000D00019F00196A11DB11D3FBFBA2FA92F982F6E
:1000E0008827820F911DA11DB11DBC01CD0142E0E9
:1000F000660F771F881F991F4A95D1F708951F92A1
:100100000F920FB60F9211242F933F938F939F93CB
:10011000AF93BF938091060190910701A0910801D0
:10012000B09109013091050123E0230F2D3720F410
:100130000196A11DB11D05C026E8230F0296A11D41
:10014000B11D209305018093060190930701A093B0
:100150000801B093090180910A0190910B01A091CF
:100160000C01B0910D010196A11DB11D80930A01F2
:1001700090930B01A0930C01B0930D01BF91AF912F
:100180009F918F913F912F910F900FBE0F901F90D5
:100190001895789484B5826084BD84B5816084BDEF
:1001A00085B5826085BD85B5816085BD80916E0015
:1001B000816080936E001092810080918100826046
:1001C0008093810080918100816080938100809183
:1001D00080008160809380008091B1008460809372
:1001E000B1008091B00081608093B00080917A006E
:1001F000846080937A0080917A00826080937A0094
:1002000080917A00816080937A0080917A00806882
:1002100080937A001092C10084B18F6384B98AB14F
:10022000886F8AB984E08BB911E000E220E1722E78
:1002300038E0632E44E0542EC0E0D0E044244394E0
:1002400092E0392E29B022FA222420F820920001CF
:100250000E945A004B015C018AE0C82ED12CE12C8F
:10026000F12C0E945A00DC01CB0188199909AA09D6
:10027000BB09883E9340A105B10598F321E0C21A5D
:10028000D108E108F10888EE880E83E0981EA11CD1
:10029000B11CC114D104E104F10419F799B181E052
:1002A000292F247092FF80E0281639F0211103C015
:1002B0004092040102C01092040180910401E09177
:1002C0000201F0910301E80FF11DF0930301E093A7
:1002D00002013197E730F105B0F4EC5CFF4F0C946C
:1002E0008C0115B911C035B80FC055B80DC065B82F
:1002F0000BC075B809C005B907C015B81092030145
:100300001092020101C015B810920401209709F45F
:1003100099CF0E94000094CFEE0FFF1F0590F4913B
:08032000E02D0994F894FFCFD1
:020328000100D2
:00000001FF
