:100000000C9461000C9473000C9473000C947300B6
:100010000C9473000C9473000C9473000C94730094
:100020000C9473000C9473000C9473000C94730084
:100030000C9473000C9473000C9473000C94730074
:100040000C94C3000C9473000C9473000C94730014
:100050000C9473000C9473000C9473000C94730054
:100060000C9473000C94730000000000240027001F
:100070002A000000000023002600290000000000E4
:10008000250028002B0004040404040404040202D4
:100090000202020203030303030301020408102007
:1000A0004080010204081020010204081020000012
:1000B0000008000201000003040700000000000027
:1000C000000011241FBECFEFD8E0DEBFCDBF21E07E
:1000D000A0E0B1E001C01D92AD30B207E1F70E948F
:1000E0000D010C9421020C940000833081F028F45F
:1000F000813099F08230A1F008958730A9F08830DE
:10010000B9F08430D1F4809180008F7D03C080915C
:1001100080008F7780938000089584B58F7702C028
:1001200084B58F7D84BD08958091B0008F7703C022
:100130008091B0008F7D8093B00008953FB7F89410
:100140008091090190910A01A0910B01B0910C01DD
:1001500026B5A89B05C02F3F19F00196A11DB11D22
:100160003FBFBA2FA92F982F8827820F911DA11D5D
:10017000B11DBC01CD0142E0660F771F881F991F9A
:100180004A95D1F708951F920F920FB60F9211243E
:100190002F933F938F939F93AF93BF9380910501CC
:1001A00090910601A0910701B091080130910401DE
:1001B00023E0230F2D3720F40196A11DB11D05C0AA
:1001C00026E8230F0296A11DB11D20930401809300
:1001D000050190930601A0930701B0930801809157
:1001E000090190910A01A0910B01B0910C010196B7
:1001F000A11DB11D8093090190930A01A0930B01E9
:10020000B0930C01BF91AF919F918F913F912F912E
:100210000F900FBE0F901F901895789484B5826050
:1002200084BD84B5816084BD85B5826085BD85B59A
:10023000816085BD80916E00816080936E00109218
:100240008100809181008260809381008091810093
:100250008160809381008091800081608093800024
:100260008091B10084608093B1008091B000816082
:100270008093B00080917A00846080937A008091AE
:100280007A00826080937A0080917A008160809306
:100290007A0080917A00806880937A001092C10081
:1002A000C3EAD0E0FE0124910FE810E0F801849148
:1002B0008823C9F090E0880F991FFC01E859FF4F8F
:1002C000A591B491FC01E458FF4F459154913FB77B
:1002D000F8949C91822F809598239C93FA019081A9
:1002E000892380833FBF56EA252E50E0352EF10149
:1002F000249162E9862E60E0962EF4018491882391
:1003000099F090E0880F991FFC01E859FF4FA591E3
:10031000B491FC01E458FF4F859194919FB7F894F4
:100320008C91822B8C939FBF30E0A32E30E0B32EB4
:10033000E7EBF0E08491FE01F490F801E490EE2008
:1003400079F081110E947500EE2DF0E0EE0FFF1F95
:10035000EE58FF4FA591B4918C91F82209F067C037
:10036000809102019091030105970CF432C0E09056
:100370000001F090010181E090E0E114F10411F03E
:1003800080E090E09093010180930001EAEBF0E0BF
:100390008491F101D490F401C490CC20B1F081118A
:1003A0000E947500EC2DF0E0EE0FFF1FE458FF4FA8
:1003B000A591B4919FB7F8948C91EF2819F0D0943F
:1003C000D82201C0D82ADC929FBF1092030110925C
:1003D00002010E949E006B017C0184EF482E55248F
:1003E0005394612C712C0E949E00DC01CB018C196E
:1003F0009D09AE09BF09883E9340A105B10598F358
:10040000F1E04F1A51086108710828EEC20E23E08E
:10041000D21EE11CF11C411451046104710419F74E
:10042000A114B10409F484CF0E94000081CF80910F
:1004300002019091030101969093030180930201C0
:060440008FCFF894FFCFFE
:00000001FF
