:100000000C945C000C9479000C9479000C942C02F4
:100010000C9482010C94D8000C9479000C94790013
:100020000C9479000C9479000C9479000C9479006C
:100030000C9479000C9479000C9479000C9479005C
:100040000C948E000C9479000C9479000C94790037
:100050000C9479000C9479000C9479000C9479003C
:100060000C9479000C947900000000002400270013
:100070002A0000000000250028002B0004040404CE
:100080000404040402020202020203030303030342
:10009000010204081020408001020408102001021F
:1000A00004081020000000080002010000030407FB
:1000B000000000000000000011241FBECFEFD8E0B8
:1000C000DEBFCDBF11E0A0E0B1E0E0EBF7E002C0A1
:1000D00005900D92A430B107D9F721E0A4E0B1E07A
:1000E00001C01D92A937B207E1F70E94D6020C9415
:1000F000D6030C94000083B181708093020180913B
:100100000201811106C090916F0181E089278093DF
:100110006F018BE39CE90197F1F708951F920F920D
:100120000FB60F9211242F933F938F939F93AF930A
:10013000BF938091750190917601A0917701B09164
:1001400078013091740123E0230F2D3720F40196BC
:10015000A11DB11D05C026E8230F0296A11DB11DEA
:10016000209374018093750190937601A093770199
:10017000B09378018091700190917101A09172010A
:10018000B09173010196A11DB11D809370019093F0
:100190007101A0937201B0937301BF91AF919F91D0
:1001A0008F913F912F910F900FBE0F901F90189538
:1001B0001F920F920FB60F9211242F933F934F93DC
:1001C0005F936F937F938F939F93AF93BF93CF93DF
:1001D000DF93EF93FF93C9B120916D00DC2FD09591
:1001E00080916E01D82390916D019C238D2F892BD6
:1001F000D0916C01DC27D223D823C0936C01D0FFAF
:100200000BC0E0914C01F0914D016C2F6170809119
:100210004E0190914F010995D1FF0CC0C1FB66279B
:1002200060F9E0915001F09151018091520190915B
:1002300053010995D2FF0CC0C2FB662760F9E0911B
:100240005401F09155018091560190915701099503
:10025000D3FF0CC0C3FB662760F9E0915801F09111
:10026000590180915A0190915B010995D4FF0CC00E
:10027000C4FB662760F9E0915C01F0915D0180911B
:100280005E0190915F010995D5FF0CC0C5FB662703
:1002900060F9E0916001F0916101809162019091BB
:1002A00063010995D6FF0CC0C6FB662760F9E09193
:1002B0006401F09165018091660190916701099553
:1002C000D7FF0DC06C2F661F6627661FE09168017F
:1002D000F091690180916A0190916B010995FF91FC
:1002E000EF91DF91CF91BF91AF919F918F917F91CE
:1002F0006F915F914F913F912F910F900FBE0F9093
:100300001F9018951F920F920FB60F9211242F93E2
:100310003F934F935F936F937F938F939F93AF938D
:10032000BF93CF93DF93EF93FF93C6B120916C00FF
:10033000DC2FD09580914B01D82390914A019C23CA
:100340008D2F892BD0914901DC27D223D823C0934C
:100350004901D0FF0BC0E0912901F0912A016C2FD7
:10036000617080912B0190912C010995D1FF0CC0F7
:10037000C1FB662760F9E0912D01F0912E0180917B
:100380002F01909130010995D2FF0CC0C2FB662766
:1003900060F9E0913101F091320180913301909147
:1003A00034010995D3FF0CC0C3FB662760F9E091C7
:1003B0003501F0913601809137019091380109950E
:1003C000D4FF0CC0C4FB662760F9E0913901F091BD
:1003D0003A0180913B0190913C010995D5FF0CC0F9
:1003E000C5FB662760F9E0913D01F0913E018091E7
:1003F0003F01909140010995D6FF0CC0C6FB6627CE
:1004000060F9E0914101F0914201809143019091A6
:1004100044010995D7FF0DC06C2F661F6627661F24
:10042000E0914501F091460180914701909148018A
:100430000995FF91EF91DF91CF91BF91AF919F917E
:100440008F917F916F915F914F913F912F910F907D
:100450000FBE0F901F9018951F920F920FB60F921C
:1004600011242F933F934F935F936F937F938F93B9
:100470009F93AF93BF93CF93DF93EF93FF93C3B15A
:1004800020916B00DC2FD09580912801D82390918A
:1004900027019C238D2F892BD0912601DC27D22385
:1004A000D823C0932601D0FF0BC0E0910601F09144
:1004B00007016C2F617080910801909109010995E5
:1004C000D1FF0CC0C1FB662760F9E0910A01F091F1
:1004D0000B0180910C0190910D010995D2FF0CC088
:1004E000C2FB662760F9E0910E01F0910F01809147
:1004F0001001909111010995D3FF0CC0C3FB662731
:1005000060F9E0911201F091130180911401909132
:1005100015010995D4FF0CC0C4FB662760F9E09172
:100520001601F09117018091180190911901099518
:10053000D5FF0CC0C5FB662760F9E0911A01F09168
:100540001B0180911C0190911D010995D6FF0CC0E3
:10055000C6FB662760F9E0911E01F0911F018091B2
:100560002001909121010995D7FF0DC06C2F661FC6
:100570006627661FE0912201F091230180912401FA
:10058000909125010995FF91EF91DF91CF91BF9156
:10059000AF919F918F917F916F915F914F913F911B
:1005A0002F910F900FBE0F901F901895789484B5DF
:1005B000826084BD84B5816084BD85B5826085BD5F
:1005C00085B5816085BD80916E00816080936E00ED
:1005D00010928100809181008260809381008091DF
:1005E0008100816080938100809180008160809390
:1005F00080008091B10084608093B1008091B00050
:1006000081608093B00080917A00846080937A004A
:1006100080917A00826080937A0080917A00816074
:1006200080937A0080917A00806880937A0010929B
:10063000C100CBE9D0E0FE01249107E810E0F80109
:100640008491882399F090E0880F991FFC01E85964
:10065000FF4FA591B491FC01EE58FF4F8591949105
:100660009FB7F8948C91822B8C939FBFE8E9F0E0C0
:100670002491E4E8F0E084918823C9F090E0880FA9
:10068000991FFC01E859FF4FA591B491FC01EE5868
:10069000FF4F459154919FB7F8948C91322F30952C
:1006A00083238C93DA01EC912E2B2C939FBF2FB7D1
:1006B000F8948BE790E090930701809306011092E5
:1006C000090110920801809127018E7F80932701F4
:1006D0008091280181608093280180916B00816066
:1006E00080936B008091680081608093680083B183
:1006F000909126019E7F8170892B809326012FBFC8
:100700009FEAE92E90E0F92E20E0C22E20E0D22EC2
:1007100020916F01F7018491FE019491F8013491C9
:10072000332309F43CC0882339F1833091F038F445
:100730008130A9F0823001F584B58F7D12C08730F9
:1007400091F08830A1F08430B9F4809180008F7DE1
:1007500003C0809180008F77809380000DC084B5A6
:100760008F7784BD09C08091B0008F7703C08091DE
:10077000B0008F7D8093B000E32FF0E0EE0FFF1FFD
:10078000EE58FF4FA591B4913FB7F8948C91211189
:1007900003C09095982301C0982B9C933FBFC11430
:1007A000D10409F4B5CF0E940000B2CFF894FFCF76
:0407B0000101010042
:00000001FF
