:100000000C943B000C94DA000C94B3000C94580050
:100010000C9458000C9458000C9458000C94580000
:100020000C9458000C9458000C9458000C945800F0
:100030000C9458000C9458000C9458000C945800E0
:100040000C9469000C9458000C9458000C945800BF
:100050000C9458000C9458000C9458000C945800C0
:100060000C9458000C9458007101730175017701CC
:1000700079017B017D0111241FBECFEFD8E0DEBFE7
:10008000CDBF11E0A0E0B1E0E4E2F3E002C00590F2
:100090000D92A430B107D9F721E0A4E0B1E001C08E
:1000A0001D92AF30B207E1F70E9401010C9490015C
:1000B0000C9400000895809104019091050101962F
:1000C00090930501809304018BE39CE90197F1F77C
:1000D00008951F920F920FB60F9211242F933F9302
:1000E0008F939F93AF93BF9380910B0190910C01DD
:1000F000A0910D01B0910E0130910A0123E0230F70
:100100002D3720F40196A11DB11D05C026E8230F4F
:100110000296A11DB11D20930A0180930B019093BB
:100120000C01A0930D01B0930E01809106019091F6
:100130000701A0910801B09109010196A11DB11D0F
:100140008093060190930701A0930801B0930901E1
:10015000BF91AF919F918F913F912F910F900FBEC3
:100160000F901F9018951F920F920FB60F921124A7
:100170002F933F934F935F936F937F938F939F93AF
:10018000AF93BF93EF93FF93E0910201F0910301CE
:100190000995FF91EF91BF91AF919F918F917F91C1
:1001A0006F915F914F913F912F910F900FBE0F90E4
:1001B0001F9018951F920F920FB60F9211242F9334
:1001C0003F934F935F936F937F938F939F93AF93DF
:1001D000BF93EF93FF93E0910001F0910101099526
:1001E000FF91EF91BF91AF919F918F917F916F910F
:1001F0005F914F913F912F910F900FBE0F901F90E5
:100200001895789484B5826084BD84B5816084BD7E
:1002100085B5826085BD85B5816085BD80916E00A4
:10022000816080936E0010928100809181008260D5
:100230008093810080918100816080938100809112
:1002400080008160809380008091B1008460809301
:10025000B1008091B00081608093B00080917A00FD
:10026000846080937A0080917A00826080937A0023
:1002700080917A00816080937A0080917A00806812
:1002800080937A001092C10084B18F6384B98AB1DF
:10029000886F8AB984E08BB98BE590E09093010177
:1002A00080930001809169008C7F82608093690057
:1002B000E89AC0E2D0E118E004E082E0D82ECC2435
:1002C000C39490E0E92E90E0F92EE0910401F091C2
:1002D00005013197E730F105B0F4EC5CFF4F0C9469
:1002E0008A01C5B811C0D5B80FC005B90DC015B980
:1002F0000BC0D5B909C0C5B907C015B81092050122
:100300001092040101C015B8E114F104F1F20E9449
:100310000000DBCFEE0FFF1F0590F491E02D099454
:04032000F894FFCF7F
:040324005A005A0021
:00000001FF
