:100000000C9461000C9473000C9473000C947300B6
:100010000C9473000C9473000C9473000C94730094
:100020000C9473000C9473000C9473000C94730084
:100030000C9473000C9473000C9473000C94730074
:100040000C94E7000C9473000C9473000C947300F0
:100050000C9473000C9473000C9473000C94730054
:100060000C9473000C94730000000000240027001F
:100070002A0000000000250028002B0000000000DE
:1000800023002600290004040404040404040202DA
:100090000202020203030303030301020408102007
:1000A0004080010204081020010204081020000012
:1000B0000008000201000003040700000000000027
:1000C000000011241FBECFEFD8E0DEBFCDBF21E07E
:1000D000A0E0B1E001C01D92AF30B207E1F70E948D
:1000E00031010C9443020C940000833081F028F419
:1000F000813099F08230A1F008958730A9F08830DE
:10010000B9F08430D1F4809180008F7D03C080915C
:1001100080008F7780938000089584B58F7702C028
:1001200084B58F7D84BD08958091B0008F7703C022
:100130008091B0008F7D8093B0000895CF93DF93BE
:10014000E7EBF0E08491E3EAF0E0D491EFE8F0E04F
:10015000C491CC2391F081110E947500EC2FF0E046
:10016000EE0FFF1FE458FF4FA591B491EC91ED23E2
:1001700081E090E021F480E002C080E090E0DF9137
:10018000CF9108953FB7F89480910B0190910C01A5
:10019000A0910D01B0910E0126B5A89B05C02F3F7F
:1001A00019F00196A11DB11D3FBFBA2FA92F982F9D
:1001B0008827820F911DA11DB11DBC01CD0142E018
:1001C000660F771F881F991F4A95D1F708951F92D0
:1001D0000F920FB60F9211242F933F938F939F93FB
:1001E000AF93BF938091070190910801A0910901FD
:1001F000B0910A013091060123E0230F2D3720F43E
:100200000196A11DB11D05C026E8230F0296A11D70
:10021000B11D209306018093070190930801A093DC
:100220000901B0930A0180910B0190910C01A091FA
:100230000D01B0910E010196A11DB11D80930B011E
:1002400090930C01A0930D01B0930E01BF91AF915B
:100250009F918F913F912F910F900FBE0F901F9004
:100260001895789484B5826084BD84B5816084BD1E
:1002700085B5826085BD85B5816085BD80916E0044
:10028000816080936E001092810080918100826075
:1002900080938100809181008160809381008091B2
:1002A00080008160809380008091B10084608093A1
:1002B000B1008091B00081608093B00080917A009D
:1002C000846080937A0080917A00826080937A00C3
:1002D00080917A00816080937A0080917A008068B2
:1002E00080937A001092C100E3EAF0E02491EFE8F5
:1002F000F0E084918823C1F090E0880F991FFC0101
:10030000E859FF4FC591D491FC01EE58FF4FA591DC
:10031000B4919FB7F8948881E22FE0958E2388836B
:100320008C91E823EC939FBFC6EAD0E0FE012491B4
:1003300002E910E0F8018491882399F090E0880F99
:10034000991FFC01E859FF4FA591B491FC01EE58AB
:10035000FF4F859194919FB7F8948C91822B8C9349
:100360009FBF2AEB822E20E0922E30E0A32E30E0B9
:10037000B32E332433940E949E0022242394892B8D
:1003800009F4212C209205010E94C2006B017C011E
:100390009AE0492E512C612C712C0E94C200DC0184
:1003A000CB018C199D09AE09BF09883E9340A10578
:1003B000B10598F3F1E04F1A51086108710828EE71
:1003C000C20E23E0D21EE11CF11C41145104610451
:1003D000710419F70E949E00222D30E0281739077A
:1003E00049F00E949E00892B19F03092040102C04E
:1003F0001092040120910401809102019091030167
:10040000820F911D909303018093020105970CF4D4
:1004100031C0E0900001F090010181E090E0E11432
:10042000F10411F080E090E09093010180930001CD
:10043000F4018491FE01D490F801C490CC20B1F075
:1004400081110E947500EC2DF0E0EE0FFF1FEE58B9
:10045000FF4FA591B4919FB7F8948C91EF2819F0B4
:10046000D094D82201C0D82ADC929FBF10920301F9
:100470001092020110920401A114B10409F47BCF7F
:0A0480000E94000078CFF894FFCF2F
:107E0000112484B714BE81FFF0D085E080938100F7
:107E100082E08093C00088E18093C10086E0809377
:107E2000C20080E18093C4008EE0C9D0259A86E02C
:107E300020E33CEF91E0309385002093840096BBD3
:107E4000B09BFECF1D9AA8958150A9F7CC24DD24C4
:107E500088248394B5E0AB2EA1E19A2EF3E0BF2EE7
:107E6000A2D0813461F49FD0082FAFD0023811F036
:107E7000013811F484E001C083E08DD089C08234E0
:107E800011F484E103C0853419F485E0A6D080C0E4
:107E9000853579F488D0E82EFF2485D0082F10E0AE
:107EA000102F00270E291F29000F111F8ED06801E7
:107EB0006FC0863521F484E090D080E0DECF843638
:107EC00009F040C070D06FD0082F6DD080E0C81688
:107ED00080E7D80618F4F601B7BEE895C0E0D1E017
:107EE00062D089930C17E1F7F0E0CF16F0E7DF06D8
:107EF00018F0F601B7BEE89568D007B600FCFDCFD4
:107F0000A601A0E0B1E02C9130E011968C91119780
:107F100090E0982F8827822B932B1296FA010C0160
:107F200087BEE89511244E5F5F4FF1E0A038BF0790
:107F300051F7F601A7BEE89507B600FCFDCF97BE46
:107F4000E89526C08437B1F42ED02DD0F82E2BD052
:107F50003CD0F601EF2C8F010F5F1F4F84911BD097
:107F6000EA94F801C1F70894C11CD11CFA94CF0C13
:107F7000D11C0EC0853739F428D08EE10CD085E9AC
:107F80000AD08FE07ACF813511F488E018D01DD067
:107F900080E101D065CF982F8091C00085FFFCCF94
:107FA0009093C60008958091C00087FFFCCF809118
:107FB000C00084FD01C0A8958091C6000895E0E648
:107FC000F0E098E1908380830895EDDF803219F02E
:107FD00088E0F5DFFFCF84E1DECF1F93182FE3DFCA
:107FE0001150E9F7F2DF1F91089580E0E8DFEE27F6
:047FF000FF270994CA
:027FFE00040479
:0400000300007E007B
:00000001FF
